:020000040000fa
:080000000002040000000000f2
:020000040000fa
:10000800ec0f0000ec0f0000fa0f0000ec0f0000ee
:10001800ec0f0000ec0f0000ec0f0000ec0f0000ec
:10002800ec0f0000ec0f0000ec0f0000ea0e0000df
:10003800ec0f0000ec0f0000ec0f0000a40f000014
:10004800ec0f0000ec0f0000ec0f0000c80e0000e1
:10005800ec0f0000ec0f0000ec0f0000ec0f0000ac
:10006800ec0f0000ec0f0000ec0f0000940f0000f4
:10007800ec0f0000ec0f0000ec0f0000ec0f00008c
:10008800ec0f0000ec0f0000ec0f0000ec0f00007c
:10009800ec0f0000ec0f000008100000ec0f00004f
:1000a800ec0f0000ec0f0000ec0f0000ec0f00005c
:1000b800ec0f0000ec0f0000ec0f0000ec0f00004c
:1000c800ec0f0000ec0f0000ec0f0000ec0f00003c
:1000d800ec0f0000ec0f0000ec0f0000ec0f00002c
:1000e800ec0f0000ec0f0000ec0f0000ec0f00001c
:1000f800ec0f0000ec0f0000ec0f0000ec0f00000c
:10010800ec0f0000ec0f0000ec0f0000ec0f0000fb
:10011800ec0f0000ec0f0000ec0f0000ec0f0000eb
:10012800ec0f0000ec0f0000ec0f0000ec0f0000db
:10013800ec0f0000ec0f0000ec0f0000ec0f0000cb
:10014800ec0f0000ec0f0000ec0f0000ec0f0000bb
:10015800ec0f0000ec0f0000ec0f0000ec0f0000ab
:10016800ec0f0000ec0f0000ec0f0000ec0f00009b
:10017800ec0f0000ec0f0000ec0f0000ec0f00008b
:10018800ec0f0000ec0f0000ec0f0000ec0f00007b
:10019800ec0f0000ec0f0000ec0f0000ec0f00006b
:1001a800ec0f0000ec0f0000ec0f0000ec0f00005b
:1001b800ec0f0000ec0f0000ec0f0000ec0f00004b
:1001c800ec0f0000ec0f0000ec0f0000ec0f00003b
:1001d800ec0f0000ec0f0000ec0f0000ec0f00002b
:1001e800ec0f0000ec0f0000ec0f0000ec0f00001b
:0801f800ec0f0000ec0f000009
:020000040000fa
:10020800ec0f0000ec0f0000fa0f0000ec0f0000ec
:10021800ec0f0000ec0f0000ec0f0000ec0f0000ea
:10022800ec0f0000ec0f0000ec0f0000ea0e0000dd
:10023800ec0f0000ec0f0000ec0f0000a40f000012
:10024800ec0f0000ec0f0000ec0f0000c80e0000df
:10025800ec0f0000ec0f0000ec0f0000ec0f0000aa
:10026800ec0f0000ec0f0000ec0f0000940f0000f2
:10027800ec0f0000ec0f0000ec0f0000ec0f00008a
:10028800ec0f0000ec0f0000ec0f0000ec0f00007a
:10029800ec0f0000ec0f000008100000ec0f00004d
:1002a800ec0f0000ec0f0000ec0f0000ec0f00005a
:1002b800ec0f0000ec0f0000ec0f0000ec0f00004a
:1002c800ec0f0000ec0f0000ec0f0000ec0f00003a
:1002d800ec0f0000ec0f0000ec0f0000ec0f00002a
:1002e800ec0f0000ec0f0000ec0f0000ec0f00001a
:1002f800ec0f0000ec0f0000ec0f0000ec0f00000a
:10030800ec0f0000ec0f0000ec0f0000ec0f0000f9
:10031800ec0f0000ec0f0000ec0f0000ec0f0000e9
:10032800ec0f0000ec0f0000ec0f0000ec0f0000d9
:10033800ec0f0000ec0f0000ec0f0000ec0f0000c9
:10034800ec0f0000ec0f0000ec0f0000ec0f0000b9
:10035800ec0f0000ec0f0000ec0f0000ec0f0000a9
:10036800ec0f0000ec0f0000ec0f0000ec0f000099
:10037800ec0f0000ec0f0000ec0f0000ec0f000089
:10038800ec0f0000ec0f0000ec0f0000ec0f000079
:10039800ec0f0000ec0f0000ec0f0000ec0f000069
:1003a800ec0f0000ec0f0000ec0f0000ec0f000059
:1003b800ec0f0000ec0f0000ec0f0000ec0f000049
:1003c800ec0f0000ec0f0000ec0f0000ec0f000039
:1003d800ec0f0000ec0f0000ec0f0000ec0f000029
:1003e800ec0f0000ec0f0000ec0f0000ec0f000019
:0803f800ec0f0000ec0f000007
:020000040000fa
:08040000000e040000000000e2
:020000040000fa
:101c00006fab20000ebf20000e0188000000000016
:101c1000000020000000e00002003200000120006f
:101c200020028800140007008c0107000000e0007b
:101c300003003a000071220001002000020037007a
:101c40000000200001002000810f70000100320020
:101c500014000700000020000000e0000200320035
:101c600000000200000000006417020000000000f5
:101c70000040da000000fe004440a900403420008b
:101c80000000e0000300320000002000a0018800f6
:101c90004440a800000006008a1f78008b1f7800cf
:101ca0000000060091018800800478000000eb002d
:101cb0001a003700e284440032a0b4009905ba004b
:101cc000e284440032a0b4009906ba00e2844400e1
:101cd00032a0b4000006eb00476fde00fd07b20043
:101ce000636ce10003003a00ebff07000000eb002b
:101cf0000a003700606ce10004003a00005deb0070
:101d00008b05e900fdff3e00040037006168e1003b
:101d1000010032000086eb000b00070019c7ba0073
:101d20001905ba000e04e00003003a000a00e000c2
:101d3000e0ff3a0000000600fe07b2009e018800a6
:101d40008a047800f5ff3700395dba008b05e90099
:101d50000c003200295dba008b05e9000800320052
:101d60000c00e00003003a00e284440032a0b4001a
:101d7000f5ff370019ddba008b05e900faff3a00dc
:101d80008904e800e184440032a0b40000000600a9
:101d90003600f800809fbe00829fbe00849fbe0078
:101da000869fbe003400f80000002000a0018800db
:101db0008560a900cd0807003400f9004f03be007c
:101dc0004f02be004f01be004f00be003600f900ba
:101dd00000400600809fbe00829fbe00841f7800e6
:101de0003400f80000002000a00188008460a900f1
:101df00010c0b30041eab7008ecabf00e14f5000e7
:101e00000d00320003003900ed4f50003c003a0055
:101e1000120037005dcabf000080fb0000004000d8
:101e2000e1a72000021880008230780010c0b300c3
:101e30008eeab700330037005dcabf000080fb00a8
:101e400000004000e1a620000318800083307800e5
:101e5000d0c0b3008eeab7002a0037005dcabf00c9
:101e60008080fb0081804000e2a5200003188000f4
:101e700003b178000040e8005deab7008e6aef0029
:101e8000e74f50001f0036005d6aef004e2aef005a
:101e9000502aef00522aef00c3a72000c2a620005c
:101ea000c1a520000040eb007452800053024200a4
:101eb000745288008452800052024200845288008a
:101ec0009452800051024200945288000040e80081
:101ed000e84f5000f4ff3a00705280004300de00eb
:101ee00070528800805280004300de0080528800db
:101ef000905280004300de009052880001003700bd
:101f00008e6aef008ecabf006f0060004019880023
:101f10002023a8003400f9004f0278004f01be00d2
:101f20004f00be00004006003400f800881f780013
:101f300008002000a80188004f0478008660a900ee
:101f40003400f90000400600801f78003400f800db
:101f500000002000a001880084e0a90048cabf005a
:101f6000e14f50000900320005003900e24f5000f7
:101f700009003200e34f500014003a000900370016
:101f8000cd42a900cd62a90010003700cd42a900c2
:101f9000cd62a8000d003700cd42a800cd62a90097
:101fa0000a0037005c4ae20004003200cd42a9007a
:101fb000cd62a8005c6aef0004003700cd42a800a3
:101fc000cd62a90010c0b3005ceab7003400f9008c
:101fd0004f007800004006003400f800881f7800a9
:101fe00008002000a80188004f0478003400f900a0
:101ff000004006003400f800881f78000800200028
:10200000a80188004f0478003400f9000040060061
:10201000809fbe00829fbe003400f80000002000b8
:10202000a001880087c0a900b0118000804078001e
:10203000b4cabf00e34f50002300320004003e004a
:10204000e14f50000f00320015003e00080037003d
:10205000e54f50006b00320027003900e64f50007a
:102060006f003200e74f500077003a006f003700f2
:10207000e1cf400075003a0010c0b300b4eab700e9
:1020800072003700e1cf400003003a0020c0b300e7
:10209000b4eab7006d003700b46aef006b00370098
:1020a00030ab2000014878000104e00003003a0052
:1020b00070c0b300b4eab7006400370030c0b300aa
:1020c000b4eab70061003700b26aef00f9cf500000
:1020d00006003a00b3cabf00fb4f500003003a00ad
:1020e00040c0b300b4eab7005800370050c0b30096
:1020f000b4eab7005500370022ab20001241780047
:102100000281fb008001eb00eb0f5100e08f5900d2
:1021100034003e00026001000b0037000e00370063
:10212000300037001000370012003700160037006b
:10213000180037002b0037001b0037001d00370048
:1021400021003700230037000141780060aa2000f9
:1021500002487800230037000141780070aa20006f
:10216000024878001f0037008180fb0081558800fd
:102170001c0037004808dd00b00ab7008055880011
:1021800060558800170037008180fb00815588006a
:10219000140037004808dd00b00ab70080558800f9
:1021a000705588000f0037008180fb008155880042
:1021b0000c0037004808dd00b00ab70080558800e1
:1021c00040558800070037008180fb00815588005a
:1021d000040037004808dd00b00ab70080558800c9
:1021e00050558800b24aec00b2eab700b34ae300a7
:1021f00016003a00a56aef0060c0b300b4eab70069
:1022000012003700b24aec00b2eab700b34ae3006a
:102210000e003a0060c0b300b4eab7000b0037000c
:10222000a46aef00b46aef00080037000104e00080
:1022300003003a0060c0b300b4eab70003003700ff
:10224000b46aef0001003700b46aef003400f9000f
:102250004f01be004f00be00004006000000050018
:10226000839f68000100e00002003d006000100054
:10227000e08018000300e00002003d006001110052
:10228000e0811900090007004f00e00002003b0058
:1022900060001000e080180000000600140020001c
:1022a000120037006011b8002b0037006022b80020
:1022b000060220000000d0008180d2000482d200fb
:1022c0008582d2000000a0000202520083825a00e0
:1022d000030031000202420083824a000000a10094
:1022e0000603e900f3ff3a0000000600889fbe00e5
:1022f0008a9fbe00841f78006c0007004f007800a2
:1023000011003300f0ff2f00838f6c0006003b00ac
:10231000040565000a00a7000800370009f0a600c0
:102320001000200008003700820f5400838f5c00eb
:10233000030039001000200001003e0000002000d2
:1023400009f0a7000000ea004f05be004f04be00e0
:102350000000e00000000600889fbe008a9fbe00cb
:1023600000827000040271000482710026003200b5
:102370000004be000200be006011b8006b0920001e
:10238000950220000182cf000a0039000541b1000a
:102390000082cf00070039000541b1000982cf005b
:1023a000040039000541b1000882cf000100390066
:1023b0000541b10005425200120032000a003b0004
:1023c00082817100610164008100d1000080d3002e
:1023d0008984d3000884d3008b05e8000442e80018
:1023e000f7ff3a00070037000804440089844c00d6
:1023f00000004800818048008b05e9000442e900a4
:10240000f9ff3a00030007004f05be004f04be006d
:102410000000060081002000618055000b003d0097
:102420000b00200061fe2f000100e1001d003400c0
:1024300082817100610164008904d1000884d300a5
:102440000000e800faff3a0071002000610064001b
:1024500003007000020060000900320061044400c3
:10246000e0844c000988a500050032008b05e800d7
:102470006808e10002003a008904d1000884d30012
:10248000f20f20000258e10005003d00c75ddd00ad
:10249000f907b20089807500080078000000060086
:1024a0000bf827008b007800000005000004be0038
:1024b000060007000003be000405be000200be00c7
:1024c00002000700844f750000000600c70ade0006
:1024d000f107b200f50fb20008003200e1cf420070
:1024e000020032000170a00024000500810f70007e
:1024f000010032000408050044000500810f70004f
:1025000002003a00140005008502e90000004000c6
:1025100081c04800fcff3b000170a00024000500c2
:020000040000fa
:1025200000000000c1c0000081c1000040010000a7
:1025300001c30000c00300008002000041c200008f
:1025400001c60000c00600008007000041c700006f
:1025500000050000c1c5000081c400004004000067
:1025600001cc0000c00c0000800d000041cd000037
:10257000000f0000c1cf000081ce0000400e00001f
:10258000000a0000c1ca000081cb0000400b00001f
:1025900001c90000c00900008008000041c8000017
:1025a00001d80000c01800008019000041d90000c7
:1025b000001b0000c1db000081da0000401a0000af
:1025c000001e0000c1de000081df0000401f00008f
:1025d00001dd0000c01d0000801c000041dc000087
:1025e00000140000c1d4000081d500004015000097
:1025f00001d70000c01700008016000041d600007f
:1026000001d20000c01200008013000041d300007e
:1026100000110000c1d1000081d000004010000076
:1026200001f00000c03000008031000041f10000e6
:1026300000330000c1f3000081f2000040320000ce
:1026400000360000c1f6000081f7000040370000ae
:1026500001f50000c03500008034000041f40000a6
:10266000003c0000c1fc000081fd0000403d000076
:1026700001ff0000c03f0000803e000041fe00005e
:1026800001fa0000c03a0000803b000041fb00005e
:1026900000390000c1f9000081f800004038000056
:1026a00000280000c1e8000081e900004029000086
:1026b00001eb0000c02b0000802a000041ea00006e
:1026c00001ee0000c02e0000802f000041ef00004e
:1026d000002d0000c1ed000081ec0000402c000046
:1026e00001e40000c02400008025000041e5000056
:1026f00000270000c1e7000081e60000402600003e
:1027000000220000c1e2000081e30000402300003d
:1027100001e10000c02100008020000041e0000035
:1027200001a00000c06000008061000041a1000025
:1027300000630000c1a3000081a20000406200000d
:1027400000660000c1a6000081a7000040670000ed
:1027500001a50000c06500008064000041a40000e5
:10276000006c0000c1ac000081ad0000406d0000b5
:1027700001af0000c06f0000806e000041ae00009d
:1027800001aa0000c06a0000806b000041ab00009d
:1027900000690000c1a9000081a800004068000095
:1027a00000780000c1b8000081b900004079000045
:1027b00001bb0000c07b0000807a000041ba00002d
:1027c00001be0000c07e0000807f000041bf00000d
:1027d000007d0000c1bd000081bc0000407c000005
:1027e00001b40000c07400008075000041b5000015
:1027f00000770000c1b7000081b6000040760000fd
:1028000000720000c1b2000081b3000040730000fc
:1028100001b10000c07100008070000041b00000f4
:1028200000500000c1900000819100004051000064
:1028300001930000c053000080520000419200004c
:1028400001960000c056000080570000419700002c
:1028500000550000c1950000819400004054000024
:10286000019c0000c05c0000805d0000419d0000f4
:10287000005f0000c19f0000819e0000405e0000dc
:10288000005a0000c19a0000819b0000405b0000dc
:1028900001990000c05900008058000041980000d4
:1028a00001880000c0480000804900004189000004
:1028b000004b0000c18b0000818a0000404a0000ec
:1028c000004e0000c18e0000818f0000404f0000cc
:1028d000018d0000c04d0000804c0000418c0000c4
:1028e00000440000c18400008185000040450000d4
:1028f00001870000c04700008046000041860000bc
:1029000001820000c04200008043000041830000bb
:1029100000410000c18100008180000040400000b3
:102920000000000000000000e204000000000000c1
:102930005d00000000000000e20400000000000054
:102940006800000000000000b0040000000000006b
:1029500075000000000000007e0400000000000080
:1029600083000000000000004c0400000000000094
:1029700093000000000000001a04000000000000a6
:10298000a500000000000000e803000000000000b7
:10299000b900000000000000b603000000000000c5
:1029a000cf000000000000008403000000000000d1
:1029b000e7000000000000005203000000000000db
:1029c00001010000000000002003000000000000e2
:1029d0001d01000000000000ee02000000000000e9
:1029e0003d01000000000000bc02000000000000eb
:1029f0005e010000000000008a02000000000000ec
:102a000083010000000000005802000000000000e8
:102a1000a9010000000000002602000000000000e4
:102a2000d201000000000000f401000000000000de
:102a3000fc01000000000000c201000000000000d6
:102a400028020000000000009001000000000000cb
:102a500054020000000000005e01000000000000c1
:102a600080020000000000002c01000000000000b7
:102a7000ab02000000000000fa00000000000000af
:102a8000d502000000000000c800000000000000a7
:102a9000fd020000000000009600000000000000a1
:102aa000220300000000000064000000000000009d
:102ab000450300000000000032000000000000009c
:102ac00063030000000000000000000000000000a0
:102ad0007f03000000000000ceff0000ffff0000a9
:102ae00096030000000000009cff0000ffff0000b4
:102af000ab030000000000006aff0000ffff0000c1
:102b0000bc0300000000000038ff0000ffff0000d1
:102b1000cb0300000000000006ff0000ffff0000e4
:102b2000d603000000000000d4fe0000ffff0000fc
:102b3000e003000000000000a2fe0000ffff000014
:102b4000e80300000000000070fe0000ffff00002e
:102b5000ff0300000000000070fe0000ffff000007
:102b6000ffff0000053000003e6e0000000800007e
:102b700000170000ffff0000041900000000000023
:102b800000000000e3ff0000ff010000330400002c
:102b9000c8ff0000ff010000206e000071ff000070
:082ba000ff00000021df00002e
:020000040000fa
:102ba800889fbe008044780001047800ac050700c7
:102bb80020c1b3003906070009407800370607002e
:102bc80008407800350607004840de003306070055
:102bd800f40507004f04be0000000600464ae20064
:102be8000d003200d22e2000820f500005003c005c
:102bf80052a42000124178000281fb008001eb0002
:102c08001b00370010c0b30047eab700f20f2000de
:102c18000300200016003700542120000482b90068
:102c280032b22800c3ff2f00040241008582490008
:102c38004828dd004821de0002017000c8a9de0036
:102c4800e00f5100e08f590001003d006011b8000d
:102c5800e206b0000380b000f00f2000800f5100a2
:102c6800e08f590002003400f20f2000030020001a
:102c78000040eb000104e00001003a0002c0ea0055
:102c880092e1b70000000600519227000004e0001e
:102c9800010032008100e90020c1b300c0ff070035
:102ca80000000600881f780018c0b30080a4200028
:102cb80008487800007c220091002000480807009e
:102cc800486aef00007c22009100200044080700b9
:102cd8008840780080a4200001487800007c220009
:102ce800910020003e080700486aef00007c22009f
:102cf800910020003a0807004f0478000000060001
:102d0800574ae2000b003200705280008000eb004e
:102d18004201dd00037420000300b8008100410077
:102d28004209dd004e00de0000007100ce08de0022
:102d3800070037007152800060aa2b000008b80015
:102d48004209dd004e00de0000007100ce08de0002
:102d580000000600925280008001eb006310b90069
:102d680004b123000411b80083014000421add00b9
:102d78004e10de0000007200ce18de0000000600d3
:102d880070022000001688007000200000278800cc
:102d9800f10e240041168800e224ef000101200012
:102da800411188002222ef002022ef002062a800b3
:102db80021e2a8008560a9009560a8002342a80028
:102dc800011a2000c11188003222ef003022ef00e2
:102dd8003062a80031e2a80087c0a90097c0a80007
:102de8003342a8000421ef00f1c32900110888002c
:102df8008460a90005e1a800f2ff280023058000ef
:102e08008300610001e0a000210588009460a8000b
:102e1800910f2000410888000a21ef00c1ff2f0010
:102e280054088000848160000310a00053088800c3
:102e380084e0a9000a41a80033058000030161006d
:102e480002e0a0003205880094e0a800f20f2000fc
:102e5800a20888001621ef0064112000148a60007f
:102e68001641a8003c01a8009261ef0001ff2f0065
:102e7800820c800082806000c100b300810c880051
:102e8800f1fc2f0003192000938960009a21ef00bc
:102e98009a01a800010e2200011988002223ef00e0
:102ea80011402000211988002823ef00801988008c
:102eb800de24ef0085a0a90021e3a8000000060099
:102ec800f4874700889fbe008a9fbe008c9fbe0083
:102ed8008e1f7800aaff07000000eb0071070700ab
:102ee800610060000000a20042eab7000000eb00a9
:102ef8006c070700620060000000e9004f00de0078
:102f080043eab700446aef000000eb0065070700da
:102f18004200de006100600049eab7008000eb0073
:102f28008000200067070700cde2a8002c002000e1
:102f3800cd22ab0003003a00c442ab0001003a00c6
:102f48000006eb0092e1ef00cd22a80055ff070034
:102f5800f0032000500ae30007003e0010c0b30051
:102f680057eab70030002000002788003002200010
:102f7800001688004bff0700e20f560004003200dd
:102f8800cd22a900424ae200010032001c002000c4
:102f98000040eb00b0ef9f00c0ef9f00c0e79f002c
:102fa800d0e79f00a0e79f00e0e79f00b0e79f0001
:102fb800804678008000eb00c1b79f000d4778007d
:102fc800edef9f00adef9f009de79f008df79f00fd
:102fd800ddef9f008004eb000a242400fb002000a2
:102fe800020037008046eb001ec0b300a6020700af
:102ff800414ae200fdff3200416aef00494ae2001f
:103008001200320002002400571680008700610079
:103018000e003a000c00e0000c003a0038002000d6
:1030280031c0b30080a42000014878000a00be0027
:103038006b070700486aef000a00be006807070030
:103048000804e900f6ff3a000d003700501680002a
:10305800680060000000e9004f00de008ff0970074
:103068000104a20081406000d1ef9f00501680004b
:10307800680060000000e9004f00de0080f79f0054
:10308800e28f54002c00320005003e000900e000e9
:1030980009003200e18f540078003a00130037002d
:1030a800e48f54005a0032002e003900e58f540096
:1030b80072003a005f0037000200240057168000b3
:1030c800870061000400320029002000424ae20023
:1030d80094003a00690037000c00e0006f003200ed
:1030e800ae06070019002000640037002fe897009b
:1030f8000004e0000300320020c0b30048eab70033
:1031080001003700486aef000200240057168000cb
:1031180087006100030032009c0607002900200098
:10312800560037000c00e00054003a0097060700ec
:103138008004eb005900370010c0b3004deab70017
:1031480030c0b30048eab7008c0607000040eb0027
:10315800b0ef9f00c0ef9f0090e79f00390020006c
:1031680046003700020024005716800087006100df
:103178000e003a007d0607004d6aef008000eb0064
:1031880040c1b30086fe0700486aef008004eb00e8
:10319800434ae2003900320010c0b300ff010700c3
:1031a80040c1b30044eab70034003700d052800071
:1031b8008000eb0039fc07000200240023492400aa
:1031c80034fc07000000e00006003d006fe89700af
:1031d8000004e0000300320010c0b30048eab70062
:1031e8000200370030c0b30048eab7009fe09700fc
:1031f8000104e00001003200490020000c00e0005a
:103208001e003a00424ae20046003a002300370016
:103218008000eb0040c1b30061fe070010c0b3009e
:1032280048eab7004d6aef00500607005900200031
:103238001200370002002400571680008700610042
:1032480009003a00486aef008004eb00434ae200b4
:103258000a00320010c0b300d001070040c1b3001b
:1032680044eab700050037000c00e00003003a000c
:10327800424ae2002b003a0008003700e10f5600ee
:103288002800320005003900e20f560047003200de
:10329800e30f5600a2003a005a0037006fe097008b
:1032a8000004e00090003a000900e00017003a002e
:1032b800ca62ab0015003200486aef00cd42a9008f
:1032c800cd62a90070fe0700cde2a9002342a90043
:1032d8003342a90021e3a90062e0a8006380a800a6
:1032e8008660a9009660a8000040fe009660a900cc
:1032f8008660a90021e3a8005016800062e0a900ba
:103308006380a9002342a800cde2a8001c00200089
:10331800dfe897000104e00081003a000006eb00b6
:103328007f003700cd02a80000c42900010020005a
:10333800ab060700cd82a800c462a80000d4200014
:1033480031002000a6060700c4e2a800cda2a8000c
:10335800cc82a800cd22a800c442a80000a8210061
:10336800610020009e060700c482a80030c0b30098
:1033780056eab700466aef004a6aef004c6aef0067
:103388004b6aef0000b02100710b20009406070083
:103398000041eb00c2e79f00d2e79f00a2e79f0031
:1033a800b2e79f002c0020005d003700404ae20091
:1033b80002003200406aef003c002000ca62ab0005
:1033c8004d003a00cfb397008703e800c7b79f00c6
:1033d80020032000808f530005003a000040eb00d6
:1033e8006e01070010c0b300d0e79f004c00370003
:1033f80000192000cfb09700808f500041003e0098
:10340800470037000043eb004fe197000204e0005b
:103418000100320006c8b3008042eb00dfe39700ea
:103428000704e0000100320005c4b3000042eb00cd
:103438004b4ae2000100320004c2b3008041eb00b5
:10344800434ae2000100320003c1b3000041eb002f
:10345800474ae2000100320082c0b3008040eb001e
:103468006fe097000004e0000100320041c0b300a3
:103478000040eb00afe397000704e00001003200d2
:1034880020c0b3000604a0008542730004c2720085
:103498008341720002c171008140710080c07000d8
:1034a8008180fb008000200006060700c482a90076
:1034b800cd22a900c442a900cd82a900c462a900f6
:1034c800cc82a900c4e2a900cda2a9000050230023
:1034d800c100200042060700cd02a900446aef009f
:1034e8000006eb000e0037000040eb00e0e79f000d
:1034f8001c0020000a0037008000eb00c1b79f00c5
:103508000700370012c0b300c2e79f008043eb00fa
:10351800d7e79f000000eb00c0b79f003c002000e9
:103528000e04e000a3003200efe897000104a200b7
:10353800e1ef9f0000e72200574ae20001003a004d
:1035480004fe0700c0528800edfd0700d052880035
:10355800e20f560061003a0080528000cb05070058
:10356800a052880061a52000914078008180fb006e
:103578008100ea00cf08de0098fd070056cabf00a8
:10358800020032000040e90056eab700203520006a
:10359800540ae3001a0034000fe197000241e800e2
:1035a80082e79f00ea4f51001700340028c0b3009b
:1035b80087a42000884b780000f82400210120000f
:1035c8000706070030c0b30048eab70000a026008d
:1035d80081012000020607000841780081a420002c
:1035e8008248780000f8240021012000fc0507002b
:1035f800486aef0010c0b30040eab7000200370085
:103608008043eb0087e79f003fe097000040e80019
:10361800b0e79f0040c6b300bfe0970080cf5000de
:10362800690036000041eb00b2e79f004c4ae20017
:1036380065003a0020c0b30048eab70000482800f7
:10364800e1012000e6050700486aef00004828006d
:10365800e1012000e205070010c0b30040eab7000e
:10366800e0e79f008043eb00b7e79f005600370074
:10367800c052800091032200810f50000e003e00ce
:103688003fe997000241e800b2ef9f00e54f510083
:103698001900340010c0b30040eab700cd42a900b9
:1036a800cd62a9008043eb00b7ef9f00a0e79f0021
:1036b800a7ef9f001000370071642200810f5000af
:1036c8000a003e002fe997000204a200a2ef9f0023
:1036d8008043eb00b7ef9f00070037000040eb0086
:1036e800b0ef9f00a0ef9f00030037008040eb0081
:1036f800b1ef9f00a1ef9f004d4ae20009003200a0
:10370800300620005a0ae30009003e004fe99700fe
:103718000241e800c2ef9f00ea4f510007003c0059
:10372800080037008043eb00c7ef9f000500370013
:103738000040eb00c0ef9f000200370011c0b3004b
:1037480091e79f00e38f540009003a0010c0b300ce
:103758004dfd0700410d230050c1b30010fd0700c7
:103768004151200040c1b3000dfd070002003700a1
:10377800e18f540001003a000c05070044cabf005d
:10378800e14f500006003a0040c1b30044eab700d8
:1037980010c0b300810007000047eb0005003700a8
:1037a80044cabf000047eb00e14f5000010036005b
:1037b800446aed008d46e80010c3b30080cf560080
:1037c80008fe3e0009fe370002002400571680005c
:1037d80087006100a6ff32000040eb00b0ef9f00b9
:1037e800a0ef9f00c4ff37002822ef002222ef003d
:1037f8002022ef009560a9003822ef003222ef0066
:103808003022ef0097c0a8000421ef009460a900bf
:103818000a21ef0094e0a9001621ef0021e3a90096
:103828009a21ef000000060098cabf0099cab600a6
:103838000080fb000000ea004f00de0000000600e8
:103848008001780099cabf00984ae3001700320047
:1038580091a92000914078008180fb008180400080
:1038680002a92000e289780091a9200091407800ff
:103878000181fb00000920000091b90000802000b0
:10388800020040008140e8008141780092a92000b0
:103898000349780091a9200091407800e3cf5000b7
:1038a80004003600996aef00020037008009eb0037
:1038b8000000eb0000000600021020001311800039
:1038c80083006100fdff32000080fb0020118800aa
:1038d800000006000200fa00889fbe008a9fbe0012
:1038e8008044780081057800020578006a805700d6
:1038f80020050700a0c5b300efff07000a04e80091
:103908004844de0008407800ebff07008840780054
:103918006a805700190507000a44e8000840780043
:10392800e5ff0700884078006a8057001305070004
:1039380009407800e0ff0700894078006a80570056
:103948000e0507000a00e0000b0032006044b800d2
:103958000884450018407800d7ff07009840780091
:103968006a805700050507008904e8000904780003
:10397800890f5500f6ff3e003fb897004800de006b
:10398800cdff07006ff09700cbff07004f05be0083
:103998004f04be000080fa00000006000200fa0092
:1039a800e0ff9f00120020008f80e90020c0b300d4
:1039b800c8ff070010c0b3004aeab7000080fa0049
:1039c800000006000200fa00889fbe008a9fbe0021
:1039d80080057800010578006a805700e504070033
:1039e800a0c5b300b4ff07004854de0008407800c3
:1039f800b1ff0700884078006a805700df0407009d
:103a08000a407800acff07008a4078006a805700b7
:103a1800da0407000a00e0000b0032006044b80036
:103a28000884450018407800a3ff070098407800f4
:103a38006a805700d10407008904e8000904780067
:103a4800890f5500f6ff3e003fb897004800de009a
:103a580099ff07006ff0970097ff07004f05be001a
:103a68004f04be000080fa00000006000200fa00c1
:103a7800e0ff9f00110020000f80e900d1ff070040
:103a88000080fa00000006001400fa00881f780081
:103a980065ff07000004e0008f01320076805700c0
:103aa80067ff07001081fb008001eb00f107200091
:103ab800810f5100e08f590087013e00026001002c
:103ac80091003700af003700830137007c003700d2
:103ad800b200370009013700130137002901370008
:103ae80038013700440137004e01370065013700bf
:103af8006f0137007801370077013700760137000a
:103b080075013700740137007301370072013700ff
:103b180071013700700137006f0137006e013700ff
:103b28006d0137006c0137006b0137006a013700ff
:103b380069013700680137006701370066013700ff
:103b480065013700640137006301370062013700ff
:103b580061013700600137005f0137005e013700ff
:103b68005d0137005c0137005b0137005a013700ff
:103b780059013700580137005701370056013700ff
:103b880055013700540137005301370052013700ff
:103b980051013700500137004f0137004e013700ff
:103ba8004d0137004c0137004b0137004a013700ff
:103bb80049013700480137004701370046013700ff
:103bc80045013700440137004301370042013700ff
:103bd80041013700400137003f0137003e013700ff
:103be8003d0137003c0137003b0137003a013700ff
:103bf80039013700380137003701370036013700ff
:103c080035013700340137003301370032013700fe
:103c180031013700300137002f0137002e013700fe
:103c28002d0137002c0137002b0137002a013700fe
:103c380029013700280137002701370026013700fe
:103c480025013700240137002301370022013700fe
:103c580021013700200137001f0137001e013700fe
:103c68001d0137001c0137001b0137001a013700fe
:103c780019013700180137001701370016013700fe
:103c880015013700140137001301370012013700fe
:103c980011013700100137000f0137000e013700fe
:103ca8000d0137000c0137000b0137000a013700fe
:103cb80009013700080137000701370009003700fc
:103cc80030c0b30069ff070000c4290001002000cc
:103cd80043040700c4fe07000002040000000000bf
:103ce800fd0037000040eb00c0ef9f0012002000ed
:103cf800f4805700f0c7b300f6fe070010c0b30009
:103d08004ceab700f400370062aa2000124178009c
:103d1800d2ef9f0073aa200093417800e3ef9f0041
:103d2800405580004800de00f0ef9f0040558000bd
:103d380080f79f00505580004800de0090f79f00f4
:103d480050558000a0f79f00605580004800de00b5
:103d5800b0f79f0060558000c0f79f007055800045
:103d68004800de00d0f79f0070558000e0f79f0004
:103d7800a2002000f38057000040eb00d5fe0700aa
:103d8800d500370010c0b30038ff070010c0b300db
:103d98004beab70040eab700cf003700a6cabf0019
:103da800d0ef9f0071aa200091407800e1ef9f00ba
:103db800405580004800de00f0ef9f00405580002d
:103dc80080f79f00505580004800de0090f79f0064
:103dd80050558000a0f79f00605580004800de0025
:103de800b0f79f0060558000c0f79f0070558000b5
:103df8004800de00d0f79f0070558000e0f79f0074
:103e0800c0528000c800de00f1f79f0080ff9f00cd
:103e1800d0528000c800de0091ff9f00a0ff9f00e5
:103e2800a0528000c880de00b1ff9f00c0ff9f0045
:103e38000040eb004a4ae2000100320000c4b3002f
:103e48008040eb00494ae2000100320001c2b300a1
:103e580080c070000040eb00474ae20001003200d9
:103e680000c1b30000c470000040eb00424ae20009
:103e78000100320080c0b300004474000040eb0031
:103e88004d4ae2000100320040c0b3000044740013
:103e98000040eb00cbc2ab000100320020c0b300f1
:103ea80000447400ff0207008000eb000004e000fb
:103eb800050032001100200000fa2000580ae30033
:103ec80001003e008000eb0081407400d1ff9f009c
:103ed80092c1bf000080ea00e0ff9f00220120009d
:103ee800f380570040c0b3007afe0700476aef002e
:103ef80010c0b3004ceab700770037000040eb0071
:103f0800d0ef9f00a0c0b300e0ef9f002200200088
:103f1800f380570050c0b3006efe070010c0b30016
:103f28004ceab7006c00370050417800e14061006e
:103f38000141780023a420008249780010407800cd
:103f48006240600043eab70020002000434ae200d4
:103f5800010032000000eb0021a42000914078000d
:103f68008180fb008100e900cf08de0080807000be
:103f78000000eb005303070060c0b300bbfe07005e
:103f8800550037000040eb00434ae20001003200d0
:103f980020c0b30021a42000914078008180fb005c
:103fa8008100ea00cf08de0001407000d0ef9f00da
:103fb80012002000f380570070c0b30045fe0700d0
:103fc80045003700904090008180fb008100ea00a6
:103fd800cf08de000141780063a420008249780000
:103fe800a040900053a420008149780080c0b3000d
:103ff8009efe07003800370062a4200012417800b6
:10400800d2ef9f0053a4200093417800e3ef9f0074
:1040180022002000f380570090c0b3002dfe070057
:104028002d0037001041900091a4200082487800ac
:104038000000eb001b0307009aeab700494ae200b8
:10404800070032009a4aa800a1a9200091407800f0
:104058008180fb000000eb001a0307000600370010
:104068009a4aa900a1a92000914078008180fb000c
:104078000000eb0013030700a0c0b3007bfe07009d
:10408800150037000000eb000603070064406000dd
:104098009aeab700a1a92000914078008180fb002e
:1040a80012002000b0c0b3000afe07000a00370063
:1040b80080002000fb0207009aeab700a3a92000ad
:1040c80093417800d3ef9f0012002000f38057003f
:1040d800c0c0b300fffd07004f0478000080fa005d
:1040e80000000600881f78003811800010558000f5
:1040f800e20f50001c00320005003e000000e00006
:1041080009003200e10f500053003a000e0037005a
:10411800e40f50003500320021003900e50f50004f
:104128004d003a003b003700a0c5b300804f540053
:1041380049003a00100020001055880000aa20000d
:104148000c030700440037004840dd00f0548800a5
:104158008840780000aa20000803070020002000fb
:10416800105588003c0037000880fb009e2ab700e5
:104178008840780000aa20000003070000092000fa
:104188009e0ae30004003e009c2aef003000200055
:104198001055880030003700a22aef002e003700a3
:1041a8008840780000aa2000f402070082a92000b5
:1041b800124178000281fb00e054800001092000d0
:1041c8000191b900820040000280200008f17800c7
:1041d8000000e800e05488009e0ae3001e003e004c
:1041e80040002000105588001b0037000884fb00a1
:1041f800005580004800de00800f540003003a009c
:10420800500020001055880013003700a22aef0044
:10421800110037000884fb00f00f2000a00ab60048
:10422800800f54000b003a0098cabf000080fb00c2
:104238000000400001a92000f2548000823078007c
:10424800986aec0098cabf00e34f5000010036009e
:10425800986aef00a22aef004f04780000000600d9
:10426800574ae20008003a00400020000100200000
:10427800db020700c8a2a8004000200001002000bf
:10428800d702070007003700400020000100200087
:10429800d3020700c8c2a800400020000100200087
:1042a800cf020700574ae2000c003a004000200005
:1042b80001002000ca020700c8c2a80001042000ab
:1042c8005216800002806000fdff3200400020008e
:1042d80001002000c20207000b0037004000200048
:1042e80001002000be020700c8a2a80001022000a9
:1042f8005216800002806000fdff3200400020005e
:1043080001002000b6020700574ae20009003a00ff
:104318004000200001002000b1020700c8a2a90047
:10432800caa2a9004000200001002000ac0207003a
:10433800080037004000200001002000a802070004
:10434800c8c2a900cac2a90040002000010020007c
:10435800a3020700574ae20009003a004000200083
:10436800010020009e020700c8c2a900cac2a90015
:1043780040002000010020009902070008003700d3
:10438800400020000100200095020700c8a2a900f3
:10439800caa2a900400020000100200090020700e6
:1043a80000000600574ae20009003a0040002000d9
:1043b800010020008a020700c8a2a900caa2a90019
:1043c8004000200001002000850207000800370097
:1043d800400020000100200081020700c8c2a90097
:1043e800cac2a90040002000010020007c0207008a
:1043f800574ae2000c003a0040002000010020006b
:1044080077020700c8c2a8000104200052168000e5
:1044180002806000fdff3200400020000100200003
:104428006f0207000b003700400020000100200049
:104438006b020700c8a2a8000102200052168000e3
:1044480002806000fdff32004000200001002000d3
:1044580063020700574ae20008003a0040002000c3
:10446800010020005e020700c8a2a800400020004a
:10447800010020005a020700070037004000200012
:104488000100200056020700c8c2a8004000200012
:10449800010020005202070000000600889fbe00ad
:1044a8008a9fbe0000447800574ae20009003a009b
:1044b800400020000100200049020700c8c2a900ee
:1044c800cac2a900400020000100200044020700e1
:1044d80008003700400020000100200040020700cb
:1044e800c8a2a900caa2a90040002000010020001b
:1044f8003b0207008045eb00090220000a04200067
:104508000804e00012003d00574ae20008003a00a3
:10451800400020000100200031020700c8a2a800c6
:1045280040002000010020002d0207001b0037007a
:10453800400020000100200029020700c8c2a8008e
:10454800400020000100200025020700130037006a
:10455800574ae20009003a0040002000010020000c
:104568001f020700c8a2a900caa2a9004000200093
:10457800010020001a020700080037004000200050
:104588000100200016020700c8c2a900cac2a9007b
:10459800400020000100200011020700574ae200f5
:1045a8000b003a0040002000010020000c02070028
:1045b800c8c2a8005116800001006500fdff320046
:1045c8004000200001002000050207000a00370013
:1045d800400020000100200001020700c8a2a80036
:1045e8005216800002806400fdff32004000200067
:1045f80001002000fa010700574ae20009003a00ca
:104608004000200001002000f5010700c8c2a900f1
:10461800cac2a9004000200001002000f0010700e4
:10462800080037004000200001002000ec010700ce
:10463800c8a2a900caa2a9004000200001002000c9
:10464800e70107008b45e800e8cf5500020032007b
:1046580008444400aaff3700574ae2000c003a0019
:104668004000200001002000dd010700c8c2a800aa
:10467800010420005216800002806000fdff320015
:104688004000200001002000d50107000b00370082
:104698004000200001002000d1010700c8a2a800a6
:1046a800010220005216800002806000fdff3200e7
:1046b8004000200001002000c9010700574ae2001d
:1046c80008003a004000200001002000c401070053
:1046d800c8a2a8004000200001002000c001070077
:1046e800070037004000200001002000bc0107003f
:1046f800c8c2a8004000200001002000b80107003f
:10470800581680004544de0061446400574ae200c0
:1047180009003a004000200001002000b001070015
:10472800c8c2a900cac2a900400020000100200098
:10473800ab010700080037004000200001002000fe
:10474800a7010700c8a2a900caa2a900400020002a
:1047580001002000a2010700574ae20009003a00c0
:1047680040002000010020009d010700c8a2a90008
:10477800caa2a900400020000100200098010700fb
:1047880008003700400020000100200094010700c5
:10479800c8c2a900cac2a900400020000100200028
:1047a8008f010700084078004f05be004f04be0087
:1047b80000000600889fbe008a9fbe008c1f7800fc
:1047c80000467800574ae20008003a0040002000fe
:1047d8000100200082010700c8a2a80040002000b4
:1047e800010020007e01070007003700400020007c
:1047f800010020007a010700c8c2a800400020007c
:1048080001002000760107008045eb000802200027
:104818000a04200089c44400574ae2000b003a0009
:1048280040002000010020006d010700c8c2a80058
:104838005116800001006500fdff32004000200095
:1048480001002000660107000a0037004000200030
:104858000100200062010700c8a2a80052168000cb
:1048680002006400fdff320040002000010020002b
:104878005b0107005116800001006400010032004e
:104888000904a000574ae20009003a00400020004d
:104898000100200052010700c8c2a900cac2a9002d
:1048a80040002000010020004d01070008003700eb
:1048b800400020000100200049010700c8a2a9000b
:1048c800caa2a900400020000100200044010700fe
:1048d8008b45e800e8cf5500ceff3a00e14f56007f
:1048e80014003a00574ae20009003a00400020004c
:1048f800010020003a010700c8a2a900caa2a90025
:104908004000200001002000350107001a00370090
:10491800400020000100200031010700c8c2a900a2
:10492800cac2a90040002000010020002c01070095
:1049380011003700574ae20008003a004000200002
:104948000100200026010700c8a2a800400020009e
:104958000100200022010700070037004000200066
:10496800010020001e010700c8c2a8004000200066
:10497800010020001a010700574ae2000c003a0023
:10498800400020000100200015010700c8c2a8004f
:10499800010420005216800002806000fdff3200f2
:1049a80040002000010020000d0107000b00370027
:1049b800400020000100200009010700c8a2a8004b
:1049c800010220005216800002806000fdff3200c4
:1049d800400020000100200001010700574ae200c2
:1049e80009003a004000200001002000fc000700f8
:1049f800c8c2a900cac2a9004000200001002000c6
:104a0800f7000700080037004000200001002000e0
:104a1800f3000700c8a2a900caa2a900400020000c
:104a280001002000ee000700574ae20009003a00a2
:104a38004000200001002000e9000700c8a2a900ea
:104a4800caa2a9004000200001002000e4000700dd
:104a5800080037004000200001002000e0000700a7
:104a6800c8c2a900cac2a900400020000100200055
:104a7800db000700094078004f0678004f05be00ac
:104a88004f04be00000006000210200093118000b1
:104a980083006100fdff32000080fb00a011880048
:104aa8000000060051aa20009140780010c0b30011
:104ab800e2cf5000010036000040eb000000060085
:104ac800889fbe008a9fbe008c1f78000006780071
:104ad80081457800b56aef00a44ae2000b00320075
:104ae80008c42900090020007ac2b3000800be00eb
:104af800bb000700b54aec00b5eab700a44ae200db
:104b0800020032008a4f5000f8ff36003342a800f6
:104b180000e2240001002000b10007000b04e000bf
:104b2800070032008c0478000904780038407800c7
:104b3800d5ff07000940540080cf5500fbff3e0019
:104b4800011020009211800002806000fdff3200f9
:104b58003342a90010c0b300a4eab7004f0678009a
:104b68004f05be004f04be000000060051c0b30050
:104b7800f05c2900d2ff07000000060061c0b30006
:104b8800905c2900ceff07000000060061c0b3005a
:104b9800305c2900caff070000000600a1c0b3006e
:104ba800005b2900c6ff070000000600a5cabf0079
:104bb800e24f500001003e00a56aec0091c0b3002e
:104bc800a05b2900beff070000000600889fbe000a
:104bd8008a9fbe008c9fbe00000278008100e90019
:104be8006044b8004240a900230034006800420035
:104bf8008002eb001403be00820f5300838f5b001a
:104c080017003c001005be008a0f51008b8f590019
:104c180013003c0024049000b404900006015100e5
:104c280087815900b00090002000900008005000d3
:104c380089805800009ab900028eb9000402460023
:104c48000010b800810042000601550087815d0010
:104c580081f507000004440081844c0006003700f9
:104c68008502e8006802420068004000858f500015
:104c7800e0ff3c006044b8000800be004f06be00dc
:104c88004f05be004f04be0000000600000178007a
:104c98008001eb003102200000492900cbff07000a
:104ca80000000600f107200081417800220320005f
:104cb8000349780001e02f00008040001000ba008e
:104cc8000000060082052400023b8800f20720004d
:104cd80002427800230320008449780002e02f0074
:104ce800000141008001eb000309bb000500fc0046
:104cf80052052000323b8800a20a2000323b88007f
:104d080061e7a80000000000000000000300280080
:104d1800043b800004816100fdff3a00420024004a
:104d2800023b8800f207200002427800230320009b
:104d38008449780002e02f00000041000108bb0010
:104d48000500fc0050052000303b8800a00a200028
:104d5800303b880061e7a800000000000000000068
:104d680001002800023b800002806000fdff3a003d
:104d7800000006000088eb00000006001001780023
:104d880082c068008180fb00818040004811de00fd
:104d980003292900e381780083006900010878006d
:104da80001007800000006000081eb000100e0002f
:104db8000900320004292900b04169004811de00c9
:104dc8008381fb0083814100e4817900030169004c
:104dd8008100e900f8ff3a000200780000000600b0
:020000040000fa
:104de800f03fb1000180b10006003500ee03090074
:104df80000000000403fb1000180b100fbff3d0012
:104e08001000b000203fb00002003500008009000b
:084e180000000000000006008c
:020000040000fa
:104e2000900a0000140000000000000000080000cc
:104e30004002000000000000400a00005000000096
:104e400000000000a40a00001200000000000000a2
:044e5000000000005e
:020000040000fa
:0200000400fffb
:04fc0000ff00000001
:020000040000fa
:0200000401f009
:04000000ffff0000fe
:020000040000fa
:0200000401f009
:04000800ffff0000f6
:020000040000fa
:0200000401f009
:04000c0018ff0000d9
:020000040000fa
:0200000401f009
:04001000d3ff00001a
:020000040000fa
:0200000401f009
:040014005fff00008a
:020000040000fa
:0200000401f009
:04001800efff0000f6
:020000040000fa
:0200000401f009
:04001c00feff0000e3
:00000001FF
